{
  "contractName": "Parking",
  "abi": [
    {
      "constant": true,
      "inputs": [
        {
          "internalType": "uint256",
          "name": "",
          "type": "uint256"
        }
      ],
      "name": "spots",
      "outputs": [
        {
          "internalType": "uint256",
          "name": "id",
          "type": "uint256"
        },
        {
          "internalType": "bool",
          "name": "isAvailable",
          "type": "bool"
        },
        {
          "internalType": "string",
          "name": "carSerialNumber",
          "type": "string"
        },
        {
          "internalType": "uint256",
          "name": "modificationDate",
          "type": "uint256"
        }
      ],
      "payable": false,
      "stateMutability": "view",
      "type": "function"
    },
    {
      "constant": true,
      "inputs": [],
      "name": "spotsCount",
      "outputs": [
        {
          "internalType": "uint256",
          "name": "",
          "type": "uint256"
        }
      ],
      "payable": false,
      "stateMutability": "view",
      "type": "function"
    }
  ],
  "bytecode": "0x608060405234801561001057600080fd5b50610229806100206000396000f3fe608060405234801561001057600080fd5b50600436106100365760003560e01c8063145a8bdf1461003b578063488944b8146100fb575b600080fd5b6100676004803603602081101561005157600080fd5b8101908080359060200190929190505050610119565b604051808581526020018415151515815260200180602001838152602001828103825284818151815260200191508051906020019080838360005b838110156100bd5780820151818401526020810190506100a2565b50505050905090810190601f1680156100ea5780820380516001836020036101000a031916815260200191505b509550505050505060405180910390f35b6101036101ee565b6040518082815260200191505060405180910390f35b60006020528060005260406000206000915090508060000154908060010160009054906101000a900460ff1690806002018054600181600116156101000203166002900480601f0160208091040260200160405190810160405280929190818152602001828054600181600116156101000203166002900480156101de5780601f106101b3576101008083540402835291602001916101de565b820191906000526020600020905b8154815290600101906020018083116101c157829003601f168201915b5050505050908060030154905084565b6001548156fea265627a7a72315820eb33514b6b76a679219407fc558e83fbf261f26b0e947fee135168578dce98a464736f6c63430005100032",
  "source": "\npragma solidity 0.5.16;\n\ncontract Parking {\n\n    struct Spot{\n        uint id;\n        bool isAvailable;\n        string carSerialNumber;\n        uint modificationDate;\n    }\n\n    mapping(uint => Spot) public spots;\n\n    uint public spotsCount;\n\n    function addSpot () private {\n        spotsCount ++;\n        spots[spotsCount] = Spot(spotsCount, false, '', now);\n    }\n\n    function parking () private {\n        while(spotsCount <= 20){\n            addSpot();\n        }\n    }\n\n}",
  "sourcePath": "/home/standalone/Projects/BlocPark/parkchain/contracts/Parking.sol",
  "compiler": {
    "name": "solc",
    "version": "0.5.16+commit.9c3226ce.Emscripten.clang"
  },
  "schemaVersion": "3.4.7",
  "updatedAt": "2022-04-15T17:17:40.730Z",
  "networkType": "ethereum",
  "devdoc": {
    "methods": {}
  },
  "userdoc": {
    "methods": {}
  }
}