{
  "contractName": "Parking",
  "abi": [
    {
      "constant": true,
      "inputs": [
        {
          "name": "",
          "type": "address"
        }
      ],
      "name": "guardians",
      "outputs": [
        {
          "name": "",
          "type": "bool"
        }
      ],
      "payable": false,
      "stateMutability": "view",
      "type": "function"
    },
    {
      "constant": true,
      "inputs": [
        {
          "name": "",
          "type": "uint256"
        }
      ],
      "name": "spots",
      "outputs": [
        {
          "name": "id",
          "type": "uint256"
        },
        {
          "name": "isAvailable",
          "type": "bool"
        }
      ],
      "payable": false,
      "stateMutability": "view",
      "type": "function"
    },
    {
      "constant": true,
      "inputs": [],
      "name": "spotsCount",
      "outputs": [
        {
          "name": "",
          "type": "uint256"
        }
      ],
      "payable": false,
      "stateMutability": "view",
      "type": "function"
    },
    {
      "inputs": [],
      "payable": false,
      "stateMutability": "nonpayable",
      "type": "constructor"
    },
    {
      "anonymous": false,
      "inputs": [
        {
          "indexed": true,
          "name": "_spotId",
          "type": "uint256"
        }
      ],
      "name": "toggledEvent",
      "type": "event"
    },
    {
      "constant": false,
      "inputs": [
        {
          "name": "_spotId",
          "type": "uint256"
        }
      ],
      "name": "toggle",
      "outputs": [],
      "payable": false,
      "stateMutability": "nonpayable",
      "type": "function"
    }
  ],
  "bytecode": "0x608060405234801561001057600080fd5b506000600190505b6014811115156100475761003a8161004d640100000000026401000000009004565b8080600101915050610018565b506100bb565b60026000815480929190600101919050555060408051908101604052808281526020016001151581525060008060025481526020019081526020016000206000820151816000015560208201518160010160006101000a81548160ff02191690831515021790555090505050565b6102dd806100ca6000396000f300608060405260043610610062576000357c0100000000000000000000000000000000000000000000000000000000900463ffffffff1680630633b14a14610067578063145a8bdf146100c2578063488944b81461010e578063751ef75314610139575b600080fd5b34801561007357600080fd5b506100a8600480360381019080803573ffffffffffffffffffffffffffffffffffffffff169060200190929190505050610166565b604051808215151515815260200191505060405180910390f35b3480156100ce57600080fd5b506100ed60048036038101908080359060200190929190505050610186565b60405180838152602001821515151581526020019250505060405180910390f35b34801561011a57600080fd5b506101236101b7565b6040518082815260200191505060405180910390f35b34801561014557600080fd5b50610164600480360381019080803590602001909291905050506101bd565b005b60016020528060005260406000206000915054906101000a900460ff1681565b60006020528060005260406000206000915090508060000154908060010160009054906101000a900460ff16905082565b60025481565b6000811180156101cf57506002548111155b15156101da57600080fd5b60018060003373ffffffffffffffffffffffffffffffffffffffff1673ffffffffffffffffffffffffffffffffffffffff16815260200190815260200160002060006101000a81548160ff02191690831515021790555060008082815260200190815260200160002060010160009054906101000a900460ff161560008083815260200190815260200160002060010160006101000a81548160ff021916908315150217905550807f07deee4035b6bebeedca83f551fc23a51ff204d608fd2d33e6d95df3d57d358860405160405180910390a2505600a165627a7a723058202d7e2d2f59b8068cc150fbbcc3f3e05230721bcf6fe3d11145fd46525addf4b80029",
  "source": "pragma solidity >=0.4.22 <0.8.0;\n\ncontract Parking {\n    struct Spot {\n        uint256 id;\n        bool isAvailable;\n    }\n\n    mapping(uint256 => Spot) public spots;\n\n    mapping(address => bool) public guardians;\n\n    uint256 public spotsCount;\n    event toggledEvent(uint256 indexed _spotId);\n\n    function addSpot(uint num) private {\n        spotsCount++;\n        spots[spotsCount] = Spot(num, true);\n    }\n\n    constructor() public{\n        for(uint i = 1; i <= 20; i++){\n            addSpot(i);\n        }\n    }\n\n    function toggle(uint256 _spotId) public {\n        // require a valid spot\n        // require(!guardians[msg.sender]);\n        require(_spotId > 0 && _spotId <= spotsCount);\n\n        guardians[msg.sender] =  true;\n        // record that spot has been reserved or freedup\n        spots[_spotId].isAvailable = !spots[_spotId].isAvailable;\n        emit toggledEvent(_spotId);\n    }\n\n}\n",
  "sourcePath": "/home/standalone/Projects/BlocPark/parkchain/contracts/Parking.sol",
  "compiler": {
    "name": "solc",
    "version": "0.4.25+commit.59dbf8f1.Emscripten.clang"
  },
  "schemaVersion": "3.4.7",
  "updatedAt": "2022-04-16T14:00:09.813Z",
  "networkType": "ethereum",
  "devdoc": {
    "methods": {}
  },
  "userdoc": {
    "methods": {}
  }
}